{
    "_format": "hh-sol-artifact-1",
    "contractName": "Escrow",
    "sourceName": "contracts/Escrow.sol",
    "abi": [
        {
            "inputs": [
                {
                    "internalType": "address",
                    "name": "_realEstateTokenAddress",
                    "type": "address"
                },
                {
                    "internalType": "address payable",
                    "name": "_seller",
                    "type": "address"
                },
                {
                    "internalType": "address",
                    "name": "_inspector",
                    "type": "address"
                },
                {
                    "internalType": "address",
                    "name": "_lender",
                    "type": "address"
                }
            ],
            "stateMutability": "nonpayable",
            "type": "constructor"
        },
        {
            "inputs": [
                {
                    "internalType": "uint256",
                    "name": "",
                    "type": "uint256"
                },
                {
                    "internalType": "address",
                    "name": "",
                    "type": "address"
                }
            ],
            "name": "approval",
            "outputs": [
                {
                    "internalType": "bool",
                    "name": "",
                    "type": "bool"
                }
            ],
            "stateMutability": "view",
            "type": "function"
        },
        {
            "inputs": [
                {
                    "internalType": "uint256",
                    "name": "_tokenId",
                    "type": "uint256"
                }
            ],
            "name": "approveSale",
            "outputs": [],
            "stateMutability": "nonpayable",
            "type": "function"
        },
        {
            "inputs": [
                {
                    "internalType": "uint256",
                    "name": "",
                    "type": "uint256"
                }
            ],
            "name": "buyer",
            "outputs": [
                {
                    "internalType": "address",
                    "name": "",
                    "type": "address"
                }
            ],
            "stateMutability": "view",
            "type": "function"
        },
        {
            "inputs": [
                {
                    "internalType": "uint256",
                    "name": "_tokenId",
                    "type": "uint256"
                }
            ],
            "name": "cancelSale",
            "outputs": [],
            "stateMutability": "nonpayable",
            "type": "function"
        },
        {
            "inputs": [
                {
                    "internalType": "uint256",
                    "name": "_tokenId",
                    "type": "uint256"
                }
            ],
            "name": "depositCollateral",
            "outputs": [],
            "stateMutability": "payable",
            "type": "function"
        },
        {
            "inputs": [
                {
                    "internalType": "uint256",
                    "name": "",
                    "type": "uint256"
                }
            ],
            "name": "escrowAmount",
            "outputs": [
                {
                    "internalType": "uint256",
                    "name": "",
                    "type": "uint256"
                }
            ],
            "stateMutability": "view",
            "type": "function"
        },
        {
            "inputs": [
                {
                    "internalType": "uint256",
                    "name": "_tokenId",
                    "type": "uint256"
                }
            ],
            "name": "finalizeSale",
            "outputs": [],
            "stateMutability": "nonpayable",
            "type": "function"
        },
        {
            "inputs": [],
            "name": "getBalance",
            "outputs": [
                {
                    "internalType": "uint256",
                    "name": "",
                    "type": "uint256"
                }
            ],
            "stateMutability": "view",
            "type": "function"
        },
        {
            "inputs": [
                {
                    "internalType": "uint256",
                    "name": "_tokenId",
                    "type": "uint256"
                }
            ],
            "name": "getInspectionStatus",
            "outputs": [
                {
                    "internalType": "bool",
                    "name": "",
                    "type": "bool"
                }
            ],
            "stateMutability": "view",
            "type": "function"
        },
        {
            "inputs": [
                {
                    "internalType": "uint256",
                    "name": "",
                    "type": "uint256"
                }
            ],
            "name": "inspectionPass",
            "outputs": [
                {
                    "internalType": "bool",
                    "name": "",
                    "type": "bool"
                }
            ],
            "stateMutability": "view",
            "type": "function"
        },
        {
            "inputs": [],
            "name": "inspector",
            "outputs": [
                {
                    "internalType": "address",
                    "name": "",
                    "type": "address"
                }
            ],
            "stateMutability": "view",
            "type": "function"
        },
        {
            "inputs": [
                {
                    "internalType": "uint256",
                    "name": "",
                    "type": "uint256"
                }
            ],
            "name": "isListed",
            "outputs": [
                {
                    "internalType": "bool",
                    "name": "",
                    "type": "bool"
                }
            ],
            "stateMutability": "view",
            "type": "function"
        },
        {
            "inputs": [],
            "name": "lender",
            "outputs": [
                {
                    "internalType": "address",
                    "name": "",
                    "type": "address"
                }
            ],
            "stateMutability": "view",
            "type": "function"
        },
        {
            "inputs": [
                {
                    "internalType": "uint256",
                    "name": "_tokenId",
                    "type": "uint256"
                },
                {
                    "internalType": "uint256",
                    "name": "_purchasePrice",
                    "type": "uint256"
                },
                {
                    "internalType": "uint256",
                    "name": "_escrowAmount",
                    "type": "uint256"
                },
                {
                    "internalType": "address",
                    "name": "_buyer",
                    "type": "address"
                }
            ],
            "name": "list",
            "outputs": [],
            "stateMutability": "payable",
            "type": "function"
        },
        {
            "inputs": [
                {
                    "internalType": "uint256",
                    "name": "",
                    "type": "uint256"
                }
            ],
            "name": "purchasePrice",
            "outputs": [
                {
                    "internalType": "uint256",
                    "name": "",
                    "type": "uint256"
                }
            ],
            "stateMutability": "view",
            "type": "function"
        },
        {
            "inputs": [],
            "name": "realEstateTokenAddress",
            "outputs": [
                {
                    "internalType": "address",
                    "name": "",
                    "type": "address"
                }
            ],
            "stateMutability": "view",
            "type": "function"
        },
        {
            "inputs": [],
            "name": "seller",
            "outputs": [
                {
                    "internalType": "address payable",
                    "name": "",
                    "type": "address"
                }
            ],
            "stateMutability": "view",
            "type": "function"
        },
        {
            "inputs": [
                {
                    "internalType": "uint256",
                    "name": "_tokenId",
                    "type": "uint256"
                },
                {
                    "internalType": "bool",
                    "name": "_status",
                    "type": "bool"
                }
            ],
            "name": "updateInspectionStatus",
            "outputs": [],
            "stateMutability": "nonpayable",
            "type": "function"
        },
        {
            "stateMutability": "payable",
            "type": "receive"
        }
    ],
    "bytecode": "0x608060405234801561001057600080fd5b50604051610b19380380610b1983398101604081905261002f9161009a565b600280546001600160a01b039586166001600160a01b03199182161790915560038054948616948216949094179093556001805492851692841692909217909155600080549190931691161790556100f9565b6001600160a01b038116811461009757600080fd5b50565b600080600080608085870312156100b057600080fd5b84516100bb81610082565b60208601519094506100cc81610082565b60408601519093506100dd81610082565b60608601519092506100ee81610082565b939692955090935050565b610a11806101086000396000f3fe60806040526004361061010d5760003560e01c8063aa92938011610095578063bd94b00511610064578063bd94b00514610337578063e995acee14610357578063ed2cee9e14610387578063f4809ed0146103a7578063fcce4883146103d757600080fd5b8063aa92938014610299578063b848de35146102b9578063bad4a01f14610304578063bcead63e1461031757600080fd5b80635d19e56c116100dc5780635d19e56c146101ec57806377fbc4ae146102195780639aa7b810146102465780639d0e5fd614610259578063a8e367501461027957600080fd5b806308551a531461011957806312065fe01461015657806314a72feb146101735780634dd4acaf146101b657600080fd5b3661011457005b600080fd5b34801561012557600080fd5b50600354610139906001600160a01b031681565b6040516001600160a01b0390911681526020015b60405180910390f35b34801561016257600080fd5b50475b60405190815260200161014d565b34801561017f57600080fd5b506101b461018e366004610906565b60009081526009602090815260408083203384529091529020805460ff19166001179055565b005b3480156101c257600080fd5b506101396101d1366004610906565b6007602052600090815260409020546001600160a01b031681565b3480156101f857600080fd5b50610165610207366004610906565b60066020526000908152604090205481565b34801561022557600080fd5b50610165610234366004610906565b60056020526000908152604090205481565b6101b461025436600461093b565b610407565b34801561026557600080fd5b506101b461027436600461097a565b61052a565b34801561028557600080fd5b50600254610139906001600160a01b031681565b3480156102a557600080fd5b506101b46102b4366004610906565b6105b0565b3480156102c557600080fd5b506102f46102d43660046109af565b600960209081526000928352604080842090915290825290205460ff1681565b604051901515815260200161014d565b6101b4610312366004610906565b6107e7565b34801561032357600080fd5b50600054610139906001600160a01b031681565b34801561034357600080fd5b506101b4610352366004610906565b61086e565b34801561036357600080fd5b506102f4610372366004610906565b60086020526000908152604090205460ff1681565b34801561039357600080fd5b50600154610139906001600160a01b031681565b3480156103b357600080fd5b506102f46103c2366004610906565b60009081526008602052604090205460ff1690565b3480156103e357600080fd5b506102f46103f2366004610906565b60046020526000908152604090205460ff1681565b6003546001600160a01b031633146104665760405162461bcd60e51b815260206004820152601f60248201527f4f6e6c79207265616c20657374617465206167656e742063616e2073656c6c0060448201526064015b60405180910390fd5b6002546040516323b872dd60e01b8152336004820152306024820152604481018690526001600160a01b03909116906323b872dd90606401600060405180830381600087803b1580156104b857600080fd5b505af11580156104cc573d6000803e3d6000fd5b505050600094855250600460209081526040808620805460ff19166001179055600582528086209490945560068152838520929092556007909152912080546001600160a01b039092166001600160a01b0319909216919091179055565b6001546001600160a01b031633146105905760405162461bcd60e51b8152602060048201526024808201527f4f6e6c7920696e73706563746f722063616e2063616c6c2074686520636f6e746044820152631c9858dd60e21b606482015260840161045d565b600091825260086020526040909120805460ff1916911515919091179055565b60008181526008602052604090205460ff1615156001146106135760405162461bcd60e51b815260206004820152601860248201527f496e7370656374696f6e206973206e6f74207061737365640000000000000000604482015260640161045d565b600081815260096020908152604080832060078352818420546001600160a01b0316845290915290205460ff1661064957600080fd5b60008181526009602090815260408083206003546001600160a01b0316845290915290205460ff1661067a57600080fd5b600081815260096020908152604080832083546001600160a01b0316845290915290205460ff166106aa57600080fd5b6000818152600560205260409020544710156107085760405162461bcd60e51b815260206004820152601760248201527f7072696365206973206e6f742073756666696369656e74000000000000000000604482015260640161045d565b6003546040516000916001600160a01b03169047908381818185875af1925050503d8060008114610755576040519150601f19603f3d011682016040523d82523d6000602084013e61075a565b606091505b505090508061076857600080fd5b600254600083815260076020526040908190205490516323b872dd60e01b81523060048201526001600160a01b039182166024820152604481018590529116906323b872dd90606401600060405180830381600087803b1580156107cb57600080fd5b505af11580156107df573d6000803e3d6000fd5b505050505050565b60008181526007602052604090205481906001600160a01b0316331461084f5760405162461bcd60e51b815260206004820152601860248201527f4f6e6c792062757965722063616e2063616c6c20746869730000000000000000604482015260640161045d565b60008281526006602052604090205434101561086a57600080fd5b5050565b60008181526008602052604081205460ff16151590036108cd576000818152600760205260408082205490516001600160a01b03909116914780156108fc02929091818181858888f1935050505015801561086a573d6000803e3d6000fd5b6003546040516001600160a01b03909116904780156108fc02916000818181858888f1935050505015801561086a573d6000803e3d6000fd5b60006020828403121561091857600080fd5b5035919050565b80356001600160a01b038116811461093657600080fd5b919050565b6000806000806080858703121561095157600080fd5b84359350602085013592506040850135915061096f6060860161091f565b905092959194509250565b6000806040838503121561098d57600080fd5b82359150602083013580151581146109a457600080fd5b809150509250929050565b600080604083850312156109c257600080fd5b823591506109d26020840161091f565b9050925092905056fea2646970667358221220833966f84c6045a99fa6fcba059c3dd63ae649da5961ba930910f9f8d2929ed264736f6c634300080d0033",
    "linkReferences": {},
    "deployedLinkReferences": {}
}