{
    "_format": "hh-sol-artifact-1",
    "contractName": "RealEstate",
    "sourceName": "contracts/RealEstate.sol",
    "abi": [
        {
            "inputs": [],
            "stateMutability": "nonpayable",
            "type": "constructor"
        },
        {
            "anonymous": false,
            "inputs": [
                {
                    "indexed": true,
                    "internalType": "address",
                    "name": "owner",
                    "type": "address"
                },
                {
                    "indexed": true,
                    "internalType": "address",
                    "name": "approved",
                    "type": "address"
                },
                {
                    "indexed": true,
                    "internalType": "uint256",
                    "name": "tokenId",
                    "type": "uint256"
                }
            ],
            "name": "Approval",
            "type": "event"
        },
        {
            "anonymous": false,
            "inputs": [
                {
                    "indexed": true,
                    "internalType": "address",
                    "name": "owner",
                    "type": "address"
                },
                {
                    "indexed": true,
                    "internalType": "address",
                    "name": "operator",
                    "type": "address"
                },
                {
                    "indexed": false,
                    "internalType": "bool",
                    "name": "approved",
                    "type": "bool"
                }
            ],
            "name": "ApprovalForAll",
            "type": "event"
        },
        {
            "anonymous": false,
            "inputs": [
                {
                    "indexed": true,
                    "internalType": "address",
                    "name": "from",
                    "type": "address"
                },
                {
                    "indexed": true,
                    "internalType": "address",
                    "name": "to",
                    "type": "address"
                },
                {
                    "indexed": true,
                    "internalType": "uint256",
                    "name": "tokenId",
                    "type": "uint256"
                }
            ],
            "name": "Transfer",
            "type": "event"
        },
        {
            "inputs": [
                {
                    "internalType": "address",
                    "name": "to",
                    "type": "address"
                },
                {
                    "internalType": "uint256",
                    "name": "tokenId",
                    "type": "uint256"
                }
            ],
            "name": "approve",
            "outputs": [],
            "stateMutability": "nonpayable",
            "type": "function"
        },
        {
            "inputs": [
                {
                    "internalType": "address",
                    "name": "owner",
                    "type": "address"
                }
            ],
            "name": "balanceOf",
            "outputs": [
                {
                    "internalType": "uint256",
                    "name": "",
                    "type": "uint256"
                }
            ],
            "stateMutability": "view",
            "type": "function"
        },
        {
            "inputs": [
                {
                    "internalType": "uint256",
                    "name": "tokenId",
                    "type": "uint256"
                }
            ],
            "name": "getApproved",
            "outputs": [
                {
                    "internalType": "address",
                    "name": "",
                    "type": "address"
                }
            ],
            "stateMutability": "view",
            "type": "function"
        },
        {
            "inputs": [
                {
                    "internalType": "address",
                    "name": "owner",
                    "type": "address"
                },
                {
                    "internalType": "address",
                    "name": "operator",
                    "type": "address"
                }
            ],
            "name": "isApprovedForAll",
            "outputs": [
                {
                    "internalType": "bool",
                    "name": "",
                    "type": "bool"
                }
            ],
            "stateMutability": "view",
            "type": "function"
        },
        {
            "inputs": [
                {
                    "internalType": "string",
                    "name": "_tokenURI",
                    "type": "string"
                }
            ],
            "name": "mint",
            "outputs": [
                {
                    "internalType": "uint256",
                    "name": "",
                    "type": "uint256"
                }
            ],
            "stateMutability": "nonpayable",
            "type": "function"
        },
        {
            "inputs": [],
            "name": "name",
            "outputs": [
                {
                    "internalType": "string",
                    "name": "",
                    "type": "string"
                }
            ],
            "stateMutability": "view",
            "type": "function"
        },
        {
            "inputs": [
                {
                    "internalType": "uint256",
                    "name": "tokenId",
                    "type": "uint256"
                }
            ],
            "name": "ownerOf",
            "outputs": [
                {
                    "internalType": "address",
                    "name": "",
                    "type": "address"
                }
            ],
            "stateMutability": "view",
            "type": "function"
        },
        {
            "inputs": [
                {
                    "internalType": "address",
                    "name": "from",
                    "type": "address"
                },
                {
                    "internalType": "address",
                    "name": "to",
                    "type": "address"
                },
                {
                    "internalType": "uint256",
                    "name": "tokenId",
                    "type": "uint256"
                }
            ],
            "name": "safeTransferFrom",
            "outputs": [],
            "stateMutability": "nonpayable",
            "type": "function"
        },
        {
            "inputs": [
                {
                    "internalType": "address",
                    "name": "from",
                    "type": "address"
                },
                {
                    "internalType": "address",
                    "name": "to",
                    "type": "address"
                },
                {
                    "internalType": "uint256",
                    "name": "tokenId",
                    "type": "uint256"
                },
                {
                    "internalType": "bytes",
                    "name": "data",
                    "type": "bytes"
                }
            ],
            "name": "safeTransferFrom",
            "outputs": [],
            "stateMutability": "nonpayable",
            "type": "function"
        },
        {
            "inputs": [
                {
                    "internalType": "address",
                    "name": "operator",
                    "type": "address"
                },
                {
                    "internalType": "bool",
                    "name": "approved",
                    "type": "bool"
                }
            ],
            "name": "setApprovalForAll",
            "outputs": [],
            "stateMutability": "nonpayable",
            "type": "function"
        },
        {
            "inputs": [
                {
                    "internalType": "bytes4",
                    "name": "interfaceId",
                    "type": "bytes4"
                }
            ],
            "name": "supportsInterface",
            "outputs": [
                {
                    "internalType": "bool",
                    "name": "",
                    "type": "bool"
                }
            ],
            "stateMutability": "view",
            "type": "function"
        },
        {
            "inputs": [],
            "name": "symbol",
            "outputs": [
                {
                    "internalType": "string",
                    "name": "",
                    "type": "string"
                }
            ],
            "stateMutability": "view",
            "type": "function"
        },
        {
            "inputs": [
                {
                    "internalType": "uint256",
                    "name": "tokenId",
                    "type": "uint256"
                }
            ],
            "name": "tokenURI",
            "outputs": [
                {
                    "internalType": "string",
                    "name": "",
                    "type": "string"
                }
            ],
            "stateMutability": "view",
            "type": "function"
        },
        {
            "inputs": [],
            "name": "totalSupply",
            "outputs": [
                {
                    "internalType": "uint256",
                    "name": "",
                    "type": "uint256"
                }
            ],
            "stateMutability": "view",
            "type": "function"
        },
        {
            "inputs": [
                {
                    "internalType": "address",
                    "name": "from",
                    "type": "address"
                },
                {
                    "internalType": "address",
                    "name": "to",
                    "type": "address"
                },
                {
                    "internalType": "uint256",
                    "name": "tokenId",
                    "type": "uint256"
                }
            ],
            "name": "transferFrom",
            "outputs": [],
            "stateMutability": "nonpayable",
            "type": "function"
        }
    ],
    "bytecode": "0x60806040523480156200001157600080fd5b50604080518082018252600b81526a5265616c2045737461746560a81b6020808301918252835180850190945260048452631491505360e21b908401528151919291620000619160009162000080565b5080516200007790600190602084019062000080565b50505062000162565b8280546200008e9062000126565b90600052602060002090601f016020900481019282620000b25760008555620000fd565b82601f10620000cd57805160ff1916838001178555620000fd565b82800160010185558215620000fd579182015b82811115620000fd578251825591602001919060010190620000e0565b506200010b9291506200010f565b5090565b5b808211156200010b576000815560010162000110565b600181811c908216806200013b57607f821691505b6020821081036200015c57634e487b7160e01b600052602260045260246000fd5b50919050565b61159c80620001726000396000f3fe608060405234801561001057600080fd5b50600436106100f55760003560e01c80636352211e11610097578063b88d4fde11610066578063b88d4fde146101f4578063c87b56dd14610207578063d85d3d271461021a578063e985e9c51461022d57600080fd5b80636352211e146101b357806370a08231146101c657806395d89b41146101d9578063a22cb465146101e157600080fd5b8063095ea7b3116100d3578063095ea7b31461016257806318160ddd1461017757806323b872dd1461018d57806342842e0e146101a057600080fd5b806301ffc9a7146100fa57806306fdde0314610122578063081812fc14610137575b600080fd5b61010d610108366004611053565b610269565b60405190151581526020015b60405180910390f35b61012a6102bb565b60405161011991906110c8565b61014a6101453660046110db565b61034d565b6040516001600160a01b039091168152602001610119565b610175610170366004611110565b610374565b005b61017f61048e565b604051908152602001610119565b61017561019b36600461113a565b61049e565b6101756101ae36600461113a565b6104cf565b61014a6101c13660046110db565b6104ea565b61017f6101d4366004611176565b61054a565b61012a6105d0565b6101756101ef366004611191565b6105df565b610175610202366004611259565b6105ee565b61012a6102153660046110db565b610626565b61017f6102283660046112d5565b610736565b61010d61023b36600461131e565b6001600160a01b03918216600090815260056020908152604080832093909416825291909152205460ff1690565b60006001600160e01b031982166380ac58cd60e01b148061029a57506001600160e01b03198216635b5e139f60e01b145b806102b557506301ffc9a760e01b6001600160e01b03198316145b92915050565b6060600080546102ca90611351565b80601f01602080910402602001604051908101604052809291908181526020018280546102f690611351565b80156103435780601f1061031857610100808354040283529160200191610343565b820191906000526020600020905b81548152906001019060200180831161032657829003601f168201915b5050505050905090565b600061035882610767565b506000908152600460205260409020546001600160a01b031690565b600061037f826104ea565b9050806001600160a01b0316836001600160a01b0316036103f15760405162461bcd60e51b815260206004820152602160248201527f4552433732313a20617070726f76616c20746f2063757272656e74206f776e656044820152603960f91b60648201526084015b60405180910390fd5b336001600160a01b038216148061040d575061040d813361023b565b61047f5760405162461bcd60e51b815260206004820152603e60248201527f4552433732313a20617070726f76652063616c6c6572206973206e6f7420746f60448201527f6b656e206f776e6572206e6f7220617070726f76656420666f7220616c6c000060648201526084016103e8565b61048983836107c9565b505050565b600061049960075490565b905090565b6104a83382610837565b6104c45760405162461bcd60e51b81526004016103e89061138b565b6104898383836108b5565b610489838383604051806020016040528060008152506105ee565b6000818152600260205260408120546001600160a01b0316806102b55760405162461bcd60e51b8152602060048201526018602482015277115490cdcc8c4e881a5b9d985b1a59081d1bdad95b88125160421b60448201526064016103e8565b60006001600160a01b0382166105b45760405162461bcd60e51b815260206004820152602960248201527f4552433732313a2061646472657373207a65726f206973206e6f7420612076616044820152683634b21037bbb732b960b91b60648201526084016103e8565b506001600160a01b031660009081526003602052604090205490565b6060600180546102ca90611351565b6105ea338383610a51565b5050565b6105f83383610837565b6106145760405162461bcd60e51b81526004016103e89061138b565b61062084848484610b1f565b50505050565b606061063182610767565b6000828152600660205260408120805461064a90611351565b80601f016020809104026020016040519081016040528092919081815260200182805461067690611351565b80156106c35780601f10610698576101008083540402835291602001916106c3565b820191906000526020600020905b8154815290600101906020018083116106a657829003601f168201915b5050505050905060006106e160408051602081019091526000815290565b905080516000036106f3575092915050565b81511561072557808260405160200161070d9291906113d9565b60405160208183030381529060405292505050919050565b61072e84610b52565b949350505050565b6000610746600780546001019055565b600061075160075490565b905061075d3382610bc6565b6102b58184610d08565b6000818152600260205260409020546001600160a01b03166107c65760405162461bcd60e51b8152602060048201526018602482015277115490cdcc8c4e881a5b9d985b1a59081d1bdad95b88125160421b60448201526064016103e8565b50565b600081815260046020526040902080546001600160a01b0319166001600160a01b03841690811790915581906107fe826104ea565b6001600160a01b03167f8c5be1e5ebec7d5bd14f71427d1e84f3dd0314c0f7b2291e5b200ac8c7c3b92560405160405180910390a45050565b600080610843836104ea565b9050806001600160a01b0316846001600160a01b0316148061088a57506001600160a01b0380821660009081526005602090815260408083209388168352929052205460ff165b8061072e5750836001600160a01b03166108a38461034d565b6001600160a01b031614949350505050565b826001600160a01b03166108c8826104ea565b6001600160a01b03161461092c5760405162461bcd60e51b815260206004820152602560248201527f4552433732313a207472616e736665722066726f6d20696e636f72726563742060448201526437bbb732b960d91b60648201526084016103e8565b6001600160a01b03821661098e5760405162461bcd60e51b8152602060048201526024808201527f4552433732313a207472616e7366657220746f20746865207a65726f206164646044820152637265737360e01b60648201526084016103e8565b6109996000826107c9565b6001600160a01b03831660009081526003602052604081208054600192906109c290849061141e565b90915550506001600160a01b03821660009081526003602052604081208054600192906109f0908490611435565b909155505060008181526002602052604080822080546001600160a01b0319166001600160a01b0386811691821790925591518493918716917fddf252ad1be2c89b69c2b068fc378daa952ba7f163c4a11628f55a4df523b3ef91a4505050565b816001600160a01b0316836001600160a01b031603610ab25760405162461bcd60e51b815260206004820152601960248201527f4552433732313a20617070726f766520746f2063616c6c65720000000000000060448201526064016103e8565b6001600160a01b03838116600081815260056020908152604080832094871680845294825291829020805460ff191686151590811790915591519182527f17307eab39ab6107e8899845ad3d59bd9653f200f220920489ca2b5937696c31910160405180910390a3505050565b610b2a8484846108b5565b610b3684848484610da2565b6106205760405162461bcd60e51b81526004016103e89061144d565b6060610b5d82610767565b6000610b7460408051602081019091526000815290565b90506000815111610b945760405180602001604052806000815250610bbf565b80610b9e84610ea3565b604051602001610baf9291906113d9565b6040516020818303038152906040525b9392505050565b6001600160a01b038216610c1c5760405162461bcd60e51b815260206004820181905260248201527f4552433732313a206d696e7420746f20746865207a65726f206164647265737360448201526064016103e8565b6000818152600260205260409020546001600160a01b031615610c815760405162461bcd60e51b815260206004820152601c60248201527f4552433732313a20746f6b656e20616c7265616479206d696e7465640000000060448201526064016103e8565b6001600160a01b0382166000908152600360205260408120805460019290610caa908490611435565b909155505060008181526002602052604080822080546001600160a01b0319166001600160a01b03861690811790915590518392907fddf252ad1be2c89b69c2b068fc378daa952ba7f163c4a11628f55a4df523b3ef908290a45050565b6000828152600260205260409020546001600160a01b0316610d835760405162461bcd60e51b815260206004820152602e60248201527f45524337323155524953746f726167653a2055524920736574206f66206e6f6e60448201526d32bc34b9ba32b73a103a37b5b2b760911b60648201526084016103e8565b6000828152600660209081526040909120825161048992840190610fa4565b60006001600160a01b0384163b15610e9857604051630a85bd0160e11b81526001600160a01b0385169063150b7a0290610de690339089908890889060040161149f565b6020604051808303816000875af1925050508015610e21575060408051601f3d908101601f19168201909252610e1e918101906114dc565b60015b610e7e573d808015610e4f576040519150601f19603f3d011682016040523d82523d6000602084013e610e54565b606091505b508051600003610e765760405162461bcd60e51b81526004016103e89061144d565b805181602001fd5b6001600160e01b031916630a85bd0160e11b14905061072e565b506001949350505050565b606081600003610eca5750506040805180820190915260018152600360fc1b602082015290565b8160005b8115610ef45780610ede816114f9565b9150610eed9050600a83611528565b9150610ece565b60008167ffffffffffffffff811115610f0f57610f0f6111cd565b6040519080825280601f01601f191660200182016040528015610f39576020820181803683370190505b5090505b841561072e57610f4e60018361141e565b9150610f5b600a8661153c565b610f66906030611435565b60f81b818381518110610f7b57610f7b611550565b60200101906001600160f81b031916908160001a905350610f9d600a86611528565b9450610f3d565b828054610fb090611351565b90600052602060002090601f016020900481019282610fd25760008555611018565b82601f10610feb57805160ff1916838001178555611018565b82800160010185558215611018579182015b82811115611018578251825591602001919060010190610ffd565b50611024929150611028565b5090565b5b808211156110245760008155600101611029565b6001600160e01b0319811681146107c657600080fd5b60006020828403121561106557600080fd5b8135610bbf8161103d565b60005b8381101561108b578181015183820152602001611073565b838111156106205750506000910152565b600081518084526110b4816020860160208601611070565b601f01601f19169290920160200192915050565b602081526000610bbf602083018461109c565b6000602082840312156110ed57600080fd5b5035919050565b80356001600160a01b038116811461110b57600080fd5b919050565b6000806040838503121561112357600080fd5b61112c836110f4565b946020939093013593505050565b60008060006060848603121561114f57600080fd5b611158846110f4565b9250611166602085016110f4565b9150604084013590509250925092565b60006020828403121561118857600080fd5b610bbf826110f4565b600080604083850312156111a457600080fd5b6111ad836110f4565b9150602083013580151581146111c257600080fd5b809150509250929050565b634e487b7160e01b600052604160045260246000fd5b600067ffffffffffffffff808411156111fe576111fe6111cd565b604051601f8501601f19908116603f01168101908282118183101715611226576112266111cd565b8160405280935085815286868601111561123f57600080fd5b858560208301376000602087830101525050509392505050565b6000806000806080858703121561126f57600080fd5b611278856110f4565b9350611286602086016110f4565b925060408501359150606085013567ffffffffffffffff8111156112a957600080fd5b8501601f810187136112ba57600080fd5b6112c9878235602084016111e3565b91505092959194509250565b6000602082840312156112e757600080fd5b813567ffffffffffffffff8111156112fe57600080fd5b8201601f8101841361130f57600080fd5b61072e848235602084016111e3565b6000806040838503121561133157600080fd5b61133a836110f4565b9150611348602084016110f4565b90509250929050565b600181811c9082168061136557607f821691505b60208210810361138557634e487b7160e01b600052602260045260246000fd5b50919050565b6020808252602e908201527f4552433732313a2063616c6c6572206973206e6f7420746f6b656e206f776e6560408201526d1c881b9bdc88185c1c1c9bdd995960921b606082015260800190565b600083516113eb818460208801611070565b8351908301906113ff818360208801611070565b01949350505050565b634e487b7160e01b600052601160045260246000fd5b60008282101561143057611430611408565b500390565b6000821982111561144857611448611408565b500190565b60208082526032908201527f4552433732313a207472616e7366657220746f206e6f6e20455243373231526560408201527131b2b4bb32b91034b6b83632b6b2b73a32b960711b606082015260800190565b6001600160a01b03858116825284166020820152604081018390526080606082018190526000906114d29083018461109c565b9695505050505050565b6000602082840312156114ee57600080fd5b8151610bbf8161103d565b60006001820161150b5761150b611408565b5060010190565b634e487b7160e01b600052601260045260246000fd5b60008261153757611537611512565b500490565b60008261154b5761154b611512565b500690565b634e487b7160e01b600052603260045260246000fdfea2646970667358221220492214d0404968bb6c359a7cb26d7bfcb599fb1acaefc1a545ebb20ad964aba364736f6c634300080d0033",
    "linkReferences": {},
    "deployedLinkReferences": {}
}